:020000021000EC
:10E000004BC0000067C0000065C0000063C0000096
:10E0100061C000005FC000005DC000005BC0000088
:10E0200059C0000057C00000FFC4000053C00000EA
:10E0300051C000004FC000004DC000004BC00000A8
:10E0400049C00000D5C0000045C0000043C000002A
:10E0500041C000003FC000003DC000003BC00000C8
:10E0600039C0000037C0000035C0000033C00000D8
:10E0700031C000002FC000002DC000002BC00000E8
:10E0800029C0000027C0000025C0000023C00000F8
:10E0900021C000001FC0000011241FBECFEFD0E23E
:10E0A000DEBFCDBF11E0A0E0B1E0EEE3FFEE01E0A6
:10E0B0000BBF02C007900D92A83AB107D9F71BBE5B
:10E0C00011E0A8EAB1E001C01D92AE3BB107E1F753
:10E0D000A2D333C795CF84E08093E9000DC080912F
:10E0E000E8008B778093E80003C08EB3882359F053
:10E0F0008091E80082FFF9CF8091E80085FFEFCFA3
:10E100008091F100089580E0089593E09093E900F4
:10E110009091E80095FD0DC09091E8009E77909356
:10E12000E80003C09EB3992369F09091E80090FF46
:10E13000F9CF8093F1005D9884E690E09093AD0173
:10E140008093AC010895F89410926F0010928100B2
:10E15000109285001092840081E085BF15BE47981B
:10E160005D9A289A0C94000008958091B2019091D4
:10E17000B30101969093B3018093B201292F97FFC9
:10E1800003C03EEF391B232F220F281710F44798A6
:10E190000895479A089584B7877F84BF88E10FB6B2
:10E1A000F89480936000109260000FBE90E880E0C9
:10E1B0000FB6F89490936100809361000FBE81E0E8
:10E1C00085BF82E085BF3F9A209A559AE1E6F0E04C
:10E1D0009083108247985D9A289A109289009AEF4E
:10E1E0009093880080936F0083E08093810006C441
:10E1F0001F920F920FB60F920BB60F9211242F930E
:10E200008F939F93EF93FF93109285001092840059
:10E210008091AC019091AD01009741F001979093EE
:10E22000AD018093AC01009709F45D9A8091AA0139
:10E230009091AB01009741F001979093AB018093CF
:10E24000AA01009709F4289AE0E0F0E08591949102
:10E250002FEF8F3F920749F08091A8019091A9017B
:10E2600001969093A9018093A801FF91EF919F914E
:10E270008F912F910F900BBE0F900FBE0F901F909C
:10E28000189582E061EC42E047D383E061E842E127
:10E2900043D384E060E842E13FC38091B601982F08
:10E2A0009F77913249F59091B7019032A1F0913268
:10E2B00019F5813A09F58091E800877F8093E8009D
:10E2C0008EE091E067E070E064D48091E8008B77A5
:10E2D0008093E8000895813279F48091E800877F87
:10E2E0008093E8008EE091E067E070E0ABD480912D
:10E2F000E8008E778093E80008954F925F926F92C6
:10E300007F928F929F92AF92BF92CF92DF92EF92C5
:10E31000FF920F931F93CF93DF9384E08093E900E4
:10E320008091E80082FF66C2289884E690E090938E
:10E33000AB018093AA01CFDEC82F853481F48CE431
:10E340009DE19093A9018093A80107B600FCFDCF41
:10E35000F999FECF81E180935700E89503C0843599
:10E3600019F4B9DE8DE01CC28C34E1F38035D1F3B1
:10E37000843711F484E485C0813611F489E510C234
:10E38000813401F5A8DEC82FA6DE482F50E0440FE7
:10E39000551F662757FD6095762F3C2F330F20E0E1
:10E3A000C901AA2797FDA095BA2F482B592B6A2B94
:10E3B0007B2B4093AE015093AF016093B0017093FB
:10E3C000B101D0CF803711F483E5EAC1833541F440
:10E3D000C0E0D1E017E0899198DE1150E1F7E1C18A
:10E3E000863521F481E391DE80E3DAC1833731F4AD
:10E3F00082E88BDE87E989DE8EE1D2C1853621F5A0
:10E4000080E090E0DC0133E025E0FC01A0935B00BC
:10E4100030935700E89507B600FCFDCFFC01A093B0
:10E420005B0020935700E89507B600FCFDCF8050B5
:10E430009F4FAF4FBF4F803040EE940741E0A4079D
:10E4400040E0B40711F78ECF823719F4E1E0F0E035
:10E450000EC0863419F4E0E0F0E009C08E3419F4FF
:10E46000E3E0F0E004C0813539F4E2E0F0E089E077
:10E4700080935700849194C1823631F489E545DE5A
:10E4800081E043DE80E08CC1823419F0873609F0E8
:10E49000E6C01092A9011092A8011DDE182F1BDE04
:10E4A000A82E19DED82F8554823008F078C1312F7C
:10E4B00020E0BB24A22AB32A10926F00C73609F0CD
:10E4C0004BC081E180935700E895C0E011E03FC068
:10E4D000C090AE01D090AF01E090B001F090B101DA
:10E4E000D634E9F48C2F90E0A0E0B0E08C299D298F
:10E4F000AE29BF29ABBFFC01879107DECC2369F0B1
:10E50000D701C6010296A11DB11D8093AE01909363
:10E51000AF01A093B001B093B101C12715C0D701DD
:10E52000C601B695A79597958795F1D4EEDDD701ED
:10E53000C6010296A11DB11D8093AE019093AF015B
:10E54000A093B001B093B1010894A108B108A1143F
:10E55000B10409F0BDCF7FC04090AE015090AF0133
:10E560006090B0017090B101D63409F05FC083E0D3
:10E57000F20160925B0080935700E89507B600FCBB
:10E58000FDCF54C0D63459F5CC2329F1C090AE014B
:10E59000D090AF01E090B001F090B1019CDD982ED9
:10E5A0008824812F90E0882999290C01F601E092B6
:10E5B0005B0000935700E8951124D701C60102962D
:10E5C000A11DB11D8093AE019093AF01A093B00146
:10E5D000B093B10102C07FDD182FC02723C0C090C7
:10E5E000AE01D090AF01E090B001F090B101F6948F
:10E5F000E794D794C7946FDD682FC60190D48091BB
:10E60000AE019091AF01A091B001B091B10102961D
:10E61000A11DB11D8093AE019093AF01A093B001F5
:10E62000B093B1010894A108B10803C010E0C0E0A4
:10E6300001E0A114B10409F0A5CFD63451F485E06E
:10E64000F20160925B0080935700E89507B600FCEA
:10E65000FDCF8DE05ADD82E080936F00A2C083344D
:10E66000A1F4C090AE01D090AF01E090B001F09065
:10E67000B10131DD90E021E00C01F601E0925B0098
:10E6800020935700E89511246DCE8336C9F4C090CD
:10E69000AE01D090AF01E090B001F090B1011BDD70
:10E6A000B701A601416090E021E00C01FA016093FE
:10E6B0005B0020935700E8951124D701C60141C0A3
:10E6C0008D3699F48091AE019091AF01A091B00187
:10E6D000B091B10125E0FC01A0935B0020935700AD
:10E6E000E89507B600FCFDCF3DCE823581F48091E0
:10E6F000AE019091AF01A091B001B091B101ABBF5B
:10E70000FC01C791D6918D2F00DD8C2F49C0843438
:10E7100021F5C090AE01D090AF01E090B001F09033
:10E72000B101F694E794D794C794D5DC682FC6015D
:10E73000F6D38091AE019091AF01A091B001B0915C
:10E74000B1010296A11DB11D8093AE019093AF015E
:10E75000A093B001B093B10105CE8436F1F4C0901E
:10E76000AE01D090AF01E090B001F090B101D701BF
:10E77000C601B695A79597958795C9D3C6DCD701ED
:10E78000C6010296A11DB11D8093AE019093AF0109
:10E79000A093B001B093B10104C08B3111F08FE3AD
:10E7A000B4DC83E08093E9009091E8008091E80078
:10E7B0008E778093E80095FF04C010C08EB3882345
:10E7C000C9F08091E80080FFF9CF8091E8008E7752
:10E7D0008093E80003C08EB3882361F08091E80045
:10E7E00080FFF9CF84E08093E9008091E8008B7787
:10E7F0008093E800DF91CF911F910F91FF90EF90F0
:10E80000DF90CF90BF90AF909F908F907F906F9050
:10E810005F904F9008954091000850910108109228
:10E8200001081092000824B714BE88E10FB6F894CE
:10E8300080936000109260000FBE30E0F901E2703A
:10E84000F07021FD1AC020FF06C0859194916FEFF2
:10E850008F3F960789F423FF10C080910B019091A0
:10E860000C014817590749F0E0E0F0E085919491D8
:10E870002FEF8F3F920709F066DC8DDC78941092C1
:10E88000A9011092A8010DC038DD2FD38091A801F5
:10E890009091A9016FE18134960710F010920D015B
:10E8A00064DC80910D01882379F78091E00081601C
:10E8B0008093E00048DC80E090E00895923029F0F9
:10E8C000933041F0913061F410C08EE390E027E581
:10E8D00031E01EC0882371F0813089F08230A1F0D0
:10E8E00080E090E020E030E013C082E190E025E994
:10E8F00031E00EC084E090E023E531E009C082E21F
:10E9000090E02FE231E004C088E190E025E131E0C1
:10E91000FA013183208308958093E900EBEEF0E063
:10E92000808181608083EDEEF0E010826093EC00E6
:10E9300040838091EE00881F8827881F089580916A
:10E94000B60187FF11C003C08EB38823B1F0809158
:10E95000E80082FFF9CF8091E8008B778093E80090
:10E9600008958EB3882349F08091E80080FFF9CFA5
:10E970008091E8008E778093E80008950F931F93AD
:10E98000CF93DF9344D04BD0C8EDD0E088818F7710
:10E99000888388818068888388818F7D8883E7ED7C
:10E9A000F0E080818068808319BC1EBA1092B401A7
:10E9B00000EE10E0F80180818B7F80838881816088
:10E9C000888380E060E042E0A7DFE1EEF0E0808154
:10E9D0008E7F8083E2EEF0E08081816080838081A1
:10E9E00088608083F80180818E7F80838881806148
:10E9F0008883DF91CF911F910F910895E7EDF0E0AB
:10EA000080818160808381E08093B501B7CFE8ED9C
:10EA1000F0E080818C7F80831092E2000895109254
:10EA2000DA001092E10008951F920F920FB60F9234
:10EA30000BB60F9211242F933F934F935F936F93D5
:10EA40007F938F939F93AF93BF93EF93FF938091A7
:10EA5000DA0080FF1BC08091D80080FF17C0809132
:10EA6000DA008E7F8093DA008091D90080FF0BC09E
:10EA70008CE089BD8EE089BD09B400FEFDCF81E048
:10EA80008EBB32D203C019BC1EBA2ED28091E100D7
:10EA900080FF17C08091E20080FF13C08091E200E8
:10EAA0008E7F8093E2008091E20080618093E2009B
:10EAB0008091D80080628093D80019BC85E08EBB1D
:10EAC00013D28091E10084FF2CC08091E20084FF8A
:10EAD00028C08CE089BD8EE089BD09B400FEFDCF61
:10EAE0008091D8008F7D8093D8008091E1008F7E47
:10EAF0008093E1008091E2008F7E8093E20080911C
:10EB0000E20081608093E2008091B401882321F4C7
:10EB10008091E30087FF02C084E001C081E08EBBEA
:10EB2000E3D18091E10083FF21C08091E20083FF67
:10EB30001DC08091E100877F8093E10082E08EBB61
:10EB40001092B4018091E1008E7F8093E10080916A
:10EB5000E2008E7F8093E2008091E20080618093EA
:10EB6000E20080E060E042E0D7DEBED1FF91EF91AD
:10EB7000BF91AF919F918F917F916F915F914F91D5
:10EB80003F912F910F900BBE0F900FBE0F901F90D3
:10EB900018952091BC013091BD012617370720F44C
:10EBA000B901FC0120E035C061157105D1F7209154
:10EBB000E8002E772093E800F4CF8EB38823F1F19C
:10EBC0008530C1F18091E80083FD36C08091E80076
:10EBD00082FD2AC08091E80080FF1BC08091F20076
:10EBE0009091F30006C021912093F1006150704094
:10EBF00001966115710519F088309105A0F321E0A7
:10EC00008830910509F020E08091E8008E778093AC
:10EC1000E8006115710589F6222379F605C08EB3E7
:10EC2000882361F0853061F08091E80082FFF7CFA2
:10EC300080E0089583E0089581E0089582E00895DA
:10EC400083E008956115710529F42091E8002B7780
:10EC50002093E800382F292F25C08EB38823A9F1EF
:10EC6000853079F18091E80083FD2DC08091E80026
:10EC700082FFF3CFE32FF22F08C08091F100819340
:10EC80003E2F2F2F6150704041F03E2F2F2F80914B
:10EC9000F2009091F300009781F78091E8008B7764
:10ECA0008093E80061157105C1F605C08EB3882315
:10ECB00061F0853061F08091E80080FFF7CF80E05F
:10ECC000089583E0089581E0089582E0089583E047
:10ECD00008950F931F93CF93DF9300D0CDB7DEB786
:10ECE00088E0E6EBF1E09091F10091938150D9F743
:10ECF000D4DA8091E80083FFE2C08091B601909160
:10ED0000B701953009F46BC0963040F4913061F151
:10ED1000913070F0933009F0D2C026C0983009F4D9
:10ED2000A1C0993009F4B0C0963009F0C8C07AC0CB
:10ED3000803809F4C4C0823809F0C1C08091BA019A
:10ED400087708093E9009091EB001092E900809128
:10ED5000E800877F8093E80081E095FF80E0809362
:10ED6000F1001092F10089C0882319F0823009F077
:10ED7000A6C08F71823009F0A2C08091B8018823AB
:10ED800041F52091BA01277009F499C02093E90058
:10ED90008091EB0080FF1DC08091B701833021F48A
:10EDA0008091EB00806213C08091EB0080618093C2
:10EDB000EB0081E090E002C0880F991F2A95E2F7EE
:10EDC0008093EA001092EA008091EB0088608093C3
:10EDD000EB001092E9008091E800877F51C0882302
:10EDE00009F06DC01091B8011F770FB7F8948091AA
:10EDF000E800877F8093E800A2DD8091E80080FF33
:10EE0000FCCF8091E3008078812B8093E3008068C1
:10EE10008093E300112311F083E001C082E08EBBF8
:10EE20000FBF4DC08058823008F049C08091B801B2
:10EE30009091B9016091BA01AE014F5F5F4F3EDD25
:10EE4000BC01009709F43BC08091E800877F809364
:10EE5000E80089819A819DDE8091E8008B7780931C
:10EE6000E8002DC0803859F58091E800877F8093B5
:10EE7000E8008091B4018093F1008091E8008E77E2
:10EE80008093E8005CDD1BC08823C9F49091B80131
:10EE90009230A8F48091E800877F8093E8009093F7
:10EEA000B4014DDD8091B401882321F48091E30009
:10EEB00087FF02C084E001C081E08EBBE2D980916F
:10EEC000E80083FF0AC08091EB0080628093EB0032
:10EED0008091E800877F8093E8000F900F90DF918A
:10EEE000CF911F910F9108950895CF938EB38823EA
:10EEF00061F0C091E900C7701092E9008091E800CC
:10EF000083FF01C0E6DEC093E900CF910895F9992F
:10EF1000FECF92BD81BDF89A992780B50895262F1E
:10EF2000F999FECF1FBA92BD81BD20BD0FB6F894EE
:0EEF3000FA9AF99A0FBE01960895F894FFCF51
:10EF3E004341544552494E41000008777701000085
:10EF4E00000000000818034100720064007500699B
:10EF5E00006E006F0020004C004C004300000022A9
:10EF6E0003410072006400750069006E006F00209E
:10EF7E00004C0065006F006E006100720064006F4F
:10EF8E000000000403090409023E00020100803261
:10EF9E0009040000010202010005240010010424EE
:10EFAE0002040524060001070582030800FF090478
:10EFBE000100020A00000007050402100001070507
:10EFCE0083021000011201100102000008412336D5
:08EFDE00000100020100010026
:040000031000E00009
:00000001FF
